{
  "contractName": "polling",
  "abi": [
    {
      "inputs": [],
      "name": "pollCount",
      "outputs": [
        {
          "internalType": "uint256",
          "name": "",
          "type": "uint256"
        }
      ],
      "stateMutability": "view",
      "type": "function"
    },
    {
      "inputs": [
        {
          "internalType": "uint256",
          "name": "",
          "type": "uint256"
        }
      ],
      "name": "polls",
      "outputs": [
        {
          "internalType": "string",
          "name": "question",
          "type": "string"
        },
        {
          "internalType": "bool",
          "name": "exists",
          "type": "bool"
        }
      ],
      "stateMutability": "view",
      "type": "function"
    },
    {
      "inputs": [
        {
          "internalType": "string",
          "name": "_question",
          "type": "string"
        },
        {
          "internalType": "string[]",
          "name": "_options",
          "type": "string[]"
        }
      ],
      "name": "createPoll",
      "outputs": [],
      "stateMutability": "nonpayable",
      "type": "function"
    },
    {
      "inputs": [
        {
          "internalType": "uint256",
          "name": "_pollId",
          "type": "uint256"
        },
        {
          "internalType": "uint256",
          "name": "_optionIndex",
          "type": "uint256"
        }
      ],
      "name": "vote",
      "outputs": [],
      "stateMutability": "nonpayable",
      "type": "function"
    },
    {
      "inputs": [
        {
          "internalType": "uint256",
          "name": "_pollId",
          "type": "uint256"
        },
        {
          "internalType": "uint256",
          "name": "_optionIndex",
          "type": "uint256"
        }
      ],
      "name": "getVotes",
      "outputs": [
        {
          "internalType": "uint256",
          "name": "voteCount",
          "type": "uint256"
        }
      ],
      "stateMutability": "view",
      "type": "function"
    }
  ],
  "bytecode": "0x608060405234801561000f575f80fd5b50610d5b8061001d5f395ff3fe608060405234801561000f575f80fd5b5060043610610055575f3560e01c80637e3d71c31461005957806391f36633146100755780639207891d146100a5578063ac2f0074146100c3578063b384abef146100f4575b5f80fd5b610073600480360381019061006e919061071c565b610110565b005b61008f600480360381019061008a91906107c5565b610187565b60405161009c9190610812565b60405180910390f35b6100ad61026e565b6040516100ba9190610812565b60405180910390f35b6100dd60048036038101906100d8919061082b565b610274565b6040516100eb9291906108ea565b60405180910390f35b61010e600480360381019061010991906107c5565b610325565b005b60015f81548092919061012290610945565b91905055505f805f60015481526020019081526020015f20905082815f01908161014c9190610b86565b508181600101908051906020019061016592919061041b565b506001816003015f6101000a81548160ff021916908315150217905550505050565b5f82825f808381526020019081526020015f206003015f9054906101000a900460ff166101e9576040517f08c379a00000000000000000000000000000000000000000000000000000000081526004016101e090610c9f565b60405180910390fd5b805f808481526020019081526020015f206001018054905011610241576040517f08c379a000000000000000000000000000000000000000000000000000000000815260040161023890610d07565b60405180910390fd5b5f808681526020019081526020015f206002015f8581526020019081526020015f20549250505092915050565b60015481565b5f602052805f5260405f205f91509050805f018054610292906109b9565b80601f01602080910402602001604051908101604052809291908181526020018280546102be906109b9565b80156103095780601f106102e057610100808354040283529160200191610309565b820191905f5260205f20905b8154815290600101906020018083116102ec57829003601f168201915b505050505090806003015f9054906101000a900460ff16905082565b81815f808381526020019081526020015f206003015f9054906101000a900460ff16610386576040517f08c379a000000000000000000000000000000000000000000000000000000000815260040161037d90610c9f565b60405180910390fd5b805f808481526020019081526020015f2060010180549050116103de576040517f08c379a00000000000000000000000000000000000000000000000000000000081526004016103d590610d07565b60405180910390fd5b5f808581526020019081526020015f206002015f8481526020019081526020015f205f81548092919061041090610945565b919050555050505050565b828054828255905f5260205f20908101928215610461579160200282015b828111156104605782518290816104509190610b86565b5091602001919060010190610439565b5b50905061046e9190610472565b5090565b5b80821115610491575f81816104889190610495565b50600101610473565b5090565b5080546104a1906109b9565b5f825580601f106104b257506104cf565b601f0160209004905f5260205f20908101906104ce91906104d2565b5b50565b5b808211156104e9575f815f9055506001016104d3565b5090565b5f604051905090565b5f80fd5b5f80fd5b5f80fd5b5f80fd5b5f601f19601f8301169050919050565b7f4e487b71000000000000000000000000000000000000000000000000000000005f52604160045260245ffd5b61054c82610506565b810181811067ffffffffffffffff8211171561056b5761056a610516565b5b80604052505050565b5f61057d6104ed565b90506105898282610543565b919050565b5f67ffffffffffffffff8211156105a8576105a7610516565b5b6105b182610506565b9050602081019050919050565b828183375f83830152505050565b5f6105de6105d98461058e565b610574565b9050828152602081018484840111156105fa576105f9610502565b5b6106058482856105be565b509392505050565b5f82601f830112610621576106206104fe565b5b81356106318482602086016105cc565b91505092915050565b5f67ffffffffffffffff82111561065457610653610516565b5b602082029050602081019050919050565b5f80fd5b5f61067b6106768461063a565b610574565b9050808382526020820190506020840283018581111561069e5761069d610665565b5b835b818110156106e557803567ffffffffffffffff8111156106c3576106c26104fe565b5b8086016106d0898261060d565b855260208501945050506020810190506106a0565b5050509392505050565b5f82601f830112610703576107026104fe565b5b8135610713848260208601610669565b91505092915050565b5f8060408385031215610732576107316104f6565b5b5f83013567ffffffffffffffff81111561074f5761074e6104fa565b5b61075b8582860161060d565b925050602083013567ffffffffffffffff81111561077c5761077b6104fa565b5b610788858286016106ef565b9150509250929050565b5f819050919050565b6107a481610792565b81146107ae575f80fd5b50565b5f813590506107bf8161079b565b92915050565b5f80604083850312156107db576107da6104f6565b5b5f6107e8858286016107b1565b92505060206107f9858286016107b1565b9150509250929050565b61080c81610792565b82525050565b5f6020820190506108255f830184610803565b92915050565b5f602082840312156108405761083f6104f6565b5b5f61084d848285016107b1565b91505092915050565b5f81519050919050565b5f82825260208201905092915050565b5f5b8381101561088d578082015181840152602081019050610872565b5f8484015250505050565b5f6108a282610856565b6108ac8185610860565b93506108bc818560208601610870565b6108c581610506565b840191505092915050565b5f8115159050919050565b6108e4816108d0565b82525050565b5f6040820190508181035f8301526109028185610898565b905061091160208301846108db565b9392505050565b7f4e487b71000000000000000000000000000000000000000000000000000000005f52601160045260245ffd5b5f61094f82610792565b91507fffffffffffffffffffffffffffffffffffffffffffffffffffffffffffffffff820361098157610980610918565b5b600182019050919050565b7f4e487b71000000000000000000000000000000000000000000000000000000005f52602260045260245ffd5b5f60028204905060018216806109d057607f821691505b6020821081036109e3576109e261098c565b5b50919050565b5f819050815f5260205f209050919050565b5f6020601f8301049050919050565b5f82821b905092915050565b5f60088302610a457fffffffffffffffffffffffffffffffffffffffffffffffffffffffffffffffff82610a0a565b610a4f8683610a0a565b95508019841693508086168417925050509392505050565b5f819050919050565b5f610a8a610a85610a8084610792565b610a67565b610792565b9050919050565b5f819050919050565b610aa383610a70565b610ab7610aaf82610a91565b848454610a16565b825550505050565b5f90565b610acb610abf565b610ad6818484610a9a565b505050565b5b81811015610af957610aee5f82610ac3565b600181019050610adc565b5050565b601f821115610b3e57610b0f816109e9565b610b18846109fb565b81016020851015610b27578190505b610b3b610b33856109fb565b830182610adb565b50505b505050565b5f82821c905092915050565b5f610b5e5f1984600802610b43565b1980831691505092915050565b5f610b768383610b4f565b9150826002028217905092915050565b610b8f82610856565b67ffffffffffffffff811115610ba857610ba7610516565b5b610bb282546109b9565b610bbd828285610afd565b5f60209050601f831160018114610bee575f8415610bdc578287015190505b610be68582610b6b565b865550610c4d565b601f198416610bfc866109e9565b5f5b82811015610c2357848901518255600182019150602085019450602081019050610bfe565b86831015610c405784890151610c3c601f891682610b4f565b8355505b6001600288020188555050505b505050505050565b7f506f6c6c20646f6573206e6f74206578697374730000000000000000000000005f82015250565b5f610c89601483610860565b9150610c9482610c55565b602082019050919050565b5f6020820190508181035f830152610cb681610c7d565b9050919050565b7f496e76616c6964206f7074696f6e0000000000000000000000000000000000005f82015250565b5f610cf1600e83610860565b9150610cfc82610cbd565b602082019050919050565b5f6020820190508181035f830152610d1e81610ce5565b905091905056fea2646970667358221220656cbf14cdcf9caa63c1391247199e797410550f27bcd639abcb39b894dbf1d564736f6c63430008150033",
  "immutableReferences": {},
  "source": "pragma solidity >=0.8.0;\n\ncontract polling {\n    struct Poll {\n        string question;\n        string[] options;\n        mapping(uint => uint) votes;\n        bool exists;\n    }\n\n    mapping(uint => Poll) public polls;\n    uint public pollCount;\n\n    function createPoll(string memory _question, string[] memory _options) public {\n        pollCount++;\n        Poll storage newPoll = polls[pollCount];\n        newPoll.question = _question;\n        newPoll.options = _options;\n        newPoll.exists = true;\n    }\n    modifier isPollValid(uint _pollId, uint _optionIndex) {\n        require(polls[_pollId].exists, \"Poll does not exists\");\n        require(polls[_pollId].options.length > _optionIndex, \"Invalid option\");\n        _;\n    }\n\n    function vote(uint _pollId, uint _optionIndex) public isPollValid(_pollId,_optionIndex) {\n        \n        polls[_pollId].votes[_optionIndex]++;\n    }\n\n    function getVotes(uint _pollId, uint _optionIndex) public  isPollValid(_pollId,_optionIndex) view returns(uint voteCount) {\n        voteCount = polls[_pollId].votes[_optionIndex];\n        return voteCount;\n    }\n}\n",
  "sourcePath": "/home/avanrathod/blockchain/decetralised-polling/contracts/Polling.sol",
  "compiler": {
    "name": "solc",
    "version": "0.8.21+commit.d9974bed.Emscripten.clang"
  },
  "schemaVersion": "3.4.16",
  "updatedAt": "2024-09-27T06:25:09.699Z",
  "devdoc": {
    "kind": "dev",
    "methods": {},
    "version": 1
  },
  "userdoc": {
    "kind": "user",
    "methods": {},
    "version": 1
  }
}