{
  "contractName": "polling",
  "abi": [
    {
      "inputs": [],
      "name": "pollCount",
      "outputs": [
        {
          "internalType": "uint256",
          "name": "",
          "type": "uint256"
        }
      ],
      "stateMutability": "view",
      "type": "function"
    },
    {
      "inputs": [
        {
          "internalType": "uint256",
          "name": "",
          "type": "uint256"
        }
      ],
      "name": "polls",
      "outputs": [
        {
          "internalType": "string",
          "name": "question",
          "type": "string"
        },
        {
          "internalType": "bool",
          "name": "exists",
          "type": "bool"
        }
      ],
      "stateMutability": "view",
      "type": "function"
    },
    {
      "inputs": [
        {
          "internalType": "string",
          "name": "_question",
          "type": "string"
        },
        {
          "internalType": "string[]",
          "name": "_options",
          "type": "string[]"
        }
      ],
      "name": "createPoll",
      "outputs": [],
      "stateMutability": "nonpayable",
      "type": "function"
    }
  ],
  "bytecode": "0x608060405234801561000f575f80fd5b50610a0e8061001d5f395ff3fe608060405234801561000f575f80fd5b506004361061003f575f3560e01c80637e3d71c3146100435780639207891d1461005f578063ac2f00741461007d575b5f80fd5b61005d600480360381019061005891906104dd565b6100ae565b005b610067610125565b604051610074919061056b565b60405180910390f35b610097600480360381019061009291906105ae565b61012b565b6040516100a592919061066d565b60405180910390f35b60015f8154809291906100c0906106c8565b91905055505f805f60015481526020019081526020015f20905082815f0190816100ea9190610909565b50818160010190805190602001906101039291906101dc565b506001816003015f6101000a81548160ff021916908315150217905550505050565b60015481565b5f602052805f5260405f205f91509050805f0180546101499061073c565b80601f01602080910402602001604051908101604052809291908181526020018280546101759061073c565b80156101c05780601f10610197576101008083540402835291602001916101c0565b820191905f5260205f20905b8154815290600101906020018083116101a357829003601f168201915b505050505090806003015f9054906101000a900460ff16905082565b828054828255905f5260205f20908101928215610222579160200282015b828111156102215782518290816102119190610909565b50916020019190600101906101fa565b5b50905061022f9190610233565b5090565b5b80821115610252575f81816102499190610256565b50600101610234565b5090565b5080546102629061073c565b5f825580601f106102735750610290565b601f0160209004905f5260205f209081019061028f9190610293565b5b50565b5b808211156102aa575f815f905550600101610294565b5090565b5f604051905090565b5f80fd5b5f80fd5b5f80fd5b5f80fd5b5f601f19601f8301169050919050565b7f4e487b71000000000000000000000000000000000000000000000000000000005f52604160045260245ffd5b61030d826102c7565b810181811067ffffffffffffffff8211171561032c5761032b6102d7565b5b80604052505050565b5f61033e6102ae565b905061034a8282610304565b919050565b5f67ffffffffffffffff821115610369576103686102d7565b5b610372826102c7565b9050602081019050919050565b828183375f83830152505050565b5f61039f61039a8461034f565b610335565b9050828152602081018484840111156103bb576103ba6102c3565b5b6103c684828561037f565b509392505050565b5f82601f8301126103e2576103e16102bf565b5b81356103f284826020860161038d565b91505092915050565b5f67ffffffffffffffff821115610415576104146102d7565b5b602082029050602081019050919050565b5f80fd5b5f61043c610437846103fb565b610335565b9050808382526020820190506020840283018581111561045f5761045e610426565b5b835b818110156104a657803567ffffffffffffffff811115610484576104836102bf565b5b80860161049189826103ce565b85526020850194505050602081019050610461565b5050509392505050565b5f82601f8301126104c4576104c36102bf565b5b81356104d484826020860161042a565b91505092915050565b5f80604083850312156104f3576104f26102b7565b5b5f83013567ffffffffffffffff8111156105105761050f6102bb565b5b61051c858286016103ce565b925050602083013567ffffffffffffffff81111561053d5761053c6102bb565b5b610549858286016104b0565b9150509250929050565b5f819050919050565b61056581610553565b82525050565b5f60208201905061057e5f83018461055c565b92915050565b61058d81610553565b8114610597575f80fd5b50565b5f813590506105a881610584565b92915050565b5f602082840312156105c3576105c26102b7565b5b5f6105d08482850161059a565b91505092915050565b5f81519050919050565b5f82825260208201905092915050565b5f5b838110156106105780820151818401526020810190506105f5565b5f8484015250505050565b5f610625826105d9565b61062f81856105e3565b935061063f8185602086016105f3565b610648816102c7565b840191505092915050565b5f8115159050919050565b61066781610653565b82525050565b5f6040820190508181035f830152610685818561061b565b9050610694602083018461065e565b9392505050565b7f4e487b71000000000000000000000000000000000000000000000000000000005f52601160045260245ffd5b5f6106d282610553565b91507fffffffffffffffffffffffffffffffffffffffffffffffffffffffffffffffff82036107045761070361069b565b5b600182019050919050565b7f4e487b71000000000000000000000000000000000000000000000000000000005f52602260045260245ffd5b5f600282049050600182168061075357607f821691505b6020821081036107665761076561070f565b5b50919050565b5f819050815f5260205f209050919050565b5f6020601f8301049050919050565b5f82821b905092915050565b5f600883026107c87fffffffffffffffffffffffffffffffffffffffffffffffffffffffffffffffff8261078d565b6107d2868361078d565b95508019841693508086168417925050509392505050565b5f819050919050565b5f61080d61080861080384610553565b6107ea565b610553565b9050919050565b5f819050919050565b610826836107f3565b61083a61083282610814565b848454610799565b825550505050565b5f90565b61084e610842565b61085981848461081d565b505050565b5b8181101561087c576108715f82610846565b60018101905061085f565b5050565b601f8211156108c1576108928161076c565b61089b8461077e565b810160208510156108aa578190505b6108be6108b68561077e565b83018261085e565b50505b505050565b5f82821c905092915050565b5f6108e15f19846008026108c6565b1980831691505092915050565b5f6108f983836108d2565b9150826002028217905092915050565b610912826105d9565b67ffffffffffffffff81111561092b5761092a6102d7565b5b610935825461073c565b610940828285610880565b5f60209050601f831160018114610971575f841561095f578287015190505b61096985826108ee565b8655506109d0565b601f19841661097f8661076c565b5f5b828110156109a657848901518255600182019150602085019450602081019050610981565b868310156109c357848901516109bf601f8916826108d2565b8355505b6001600288020188555050505b50505050505056fea26469706673582212204f2a7b377551bb5212a59743c4107bd95796692dd7ffd42e816d581df4ffb01264736f6c63430008150033",
  "immutableReferences": {},
  "source": "pragma solidity >=0.8.0;\n\ncontract polling {\n    struct Poll {\n        string question;\n        string[] options;\n        mapping(uint => uint) votes;\n        bool exists;\n    }\n\n    mapping(uint => Poll) public polls;\n    uint public pollCount;\n\n    function createPoll(string memory _question, string[] memory _options) public {\n        pollCount++;\n        Poll storage newPoll = polls[pollCount];\n        newPoll.question = _question;\n        newPoll.options = _options;\n        newPoll.exists = true;\n    }\n}\n",
  "sourcePath": "/home/avanrathod/blockchain/decetralised-polling/contracts/Polling.sol",
  "compiler": {
    "name": "solc",
    "version": "0.8.21+commit.d9974bed.Emscripten.clang"
  },
  "schemaVersion": "3.4.16",
  "updatedAt": "2024-09-27T06:04:39.256Z",
  "devdoc": {
    "kind": "dev",
    "methods": {},
    "version": 1
  },
  "userdoc": {
    "kind": "user",
    "methods": {},
    "version": 1
  }
}