{
  "contractName": "Polling",
  "abi": [
    {
      "constant": true,
      "inputs": [],
      "name": "pollCount",
      "outputs": [
        {
          "name": "",
          "type": "uint256"
        }
      ],
      "payable": false,
      "stateMutability": "view",
      "type": "function"
    },
    {
      "constant": true,
      "inputs": [
        {
          "name": "",
          "type": "uint256"
        }
      ],
      "name": "polls",
      "outputs": [
        {
          "name": "question",
          "type": "string"
        },
        {
          "name": "exists",
          "type": "bool"
        }
      ],
      "payable": false,
      "stateMutability": "view",
      "type": "function"
    },
    {
      "anonymous": false,
      "inputs": [
        {
          "indexed": false,
          "name": "pollId",
          "type": "uint256"
        },
        {
          "indexed": false,
          "name": "optionIndex",
          "type": "uint256"
        }
      ],
      "name": "Voted",
      "type": "event"
    },
    {
      "constant": false,
      "inputs": [
        {
          "name": "_question",
          "type": "string"
        },
        {
          "name": "_options",
          "type": "string[]"
        }
      ],
      "name": "createPoll",
      "outputs": [],
      "payable": false,
      "stateMutability": "nonpayable",
      "type": "function"
    },
    {
      "constant": false,
      "inputs": [
        {
          "name": "_pollId",
          "type": "uint256"
        },
        {
          "name": "_optionIndex",
          "type": "uint256"
        }
      ],
      "name": "vote",
      "outputs": [],
      "payable": false,
      "stateMutability": "nonpayable",
      "type": "function"
    },
    {
      "constant": true,
      "inputs": [
        {
          "name": "_pollId",
          "type": "uint256"
        },
        {
          "name": "_optionIndex",
          "type": "uint256"
        }
      ],
      "name": "getVotes",
      "outputs": [
        {
          "name": "voteCount",
          "type": "uint256"
        }
      ],
      "payable": false,
      "stateMutability": "view",
      "type": "function"
    }
  ],
  "bytecode": "0x608060405234801561001057600080fd5b50610bbb806100206000396000f3fe608060405260043610610067576000357c0100000000000000000000000000000000000000000000000000000000900480637e3d71c31461006c57806391f36633146100955780639207891d146100d2578063ac2f0074146100fd578063b384abef1461013b575b600080fd5b34801561007857600080fd5b50610093600480360361008e919081019061080f565b610164565b005b3480156100a157600080fd5b506100bc60048036036100b791908101906108a4565b6101e2565b6040516100c99190610a12565b60405180910390f35b3480156100de57600080fd5b506100e76102da565b6040516100f49190610a12565b60405180910390f35b34801561010957600080fd5b50610124600480360361011f919081019061087b565b6102e0565b6040516101329291906109a2565b60405180910390f35b34801561014757600080fd5b50610162600480360361015d91908101906108a4565b6103a9565b005b600160008154809291906001019190505550600080600060015481526020019081526020016000209050828160000190805190602001906101a69291906104e0565b50818160010190805190602001906101bf929190610560565b5060018160030160006101000a81548160ff021916908315150217905550505050565b6000828260008083815260200190815260200160002060030160009054906101000a900460ff16151561024a576040517f08c379a0000000000000000000000000000000000000000000000000000000008152600401610241906109f2565b60405180910390fd5b80600080848152602001908152602001600020600101805490501115156102a6576040517f08c379a000000000000000000000000000000000000000000000000000000000815260040161029d906109d2565b60405180910390fd5b6000808681526020019081526020016000206002016000858152602001908152602001600020549250829250505092915050565b60015481565b6000602052806000526040600020600091509050806000018054600181600116156101000203166002900480601f01602080910402602001604051908101604052809291908181526020018280546001816001161561010002031660029004801561038c5780601f106103615761010080835404028352916020019161038c565b820191906000526020600020905b81548152906001019060200180831161036f57829003601f168201915b5050505050908060030160009054906101000a900460ff16905082565b818160008083815260200190815260200160002060030160009054906101000a900460ff16151561040f576040517f08c379a0000000000000000000000000000000000000000000000000000000008152600401610406906109f2565b60405180910390fd5b806000808481526020019081526020016000206001018054905011151561046b576040517f08c379a0000000000000000000000000000000000000000000000000000000008152600401610462906109d2565b60405180910390fd5b6000808581526020019081526020016000206002016000848152602001908152602001600020600081548092919060010191905055507f84a5508ca0d85b42a876e75a9126f3ae7b43617ce60b170bf8805d34630bc65484846040516104d2929190610a2d565b60405180910390a150505050565b828054600181600116156101000203166002900490600052602060002090601f016020900481019282601f1061052157805160ff191683800117855561054f565b8280016001018555821561054f579182015b8281111561054e578251825591602001919060010190610533565b5b50905061055c91906105c0565b5090565b8280548282559060005260206000209081019282156105af579160200282015b828111156105ae57825182908051906020019061059e9291906105e5565b5091602001919060010190610580565b5b5090506105bc9190610665565b5090565b6105e291905b808211156105de5760008160009055506001016105c6565b5090565b90565b828054600181600116156101000203166002900490600052602060002090601f016020900481019282601f1061062657805160ff1916838001178555610654565b82800160010185558215610654579182015b82811115610653578251825591602001919060010190610638565b5b50905061066191906105c0565b5090565b61068e91905b8082111561068a57600081816106819190610691565b5060010161066b565b5090565b90565b50805460018160011615610100020316600290046000825580601f106106b757506106d6565b601f0160209004906000526020600020908101906106d591906105c0565b5b50565b600082601f83011215156106ec57600080fd5b81356106ff6106fa82610a83565b610a56565b9150818183526020840193506020810190508360005b83811015610745578135860161072b888261074f565b845260208401935060208301925050600181019050610715565b5050505092915050565b600082601f830112151561076257600080fd5b813561077561077082610aab565b610a56565b9150808252602083016020830185838301111561079157600080fd5b61079c838284610b2e565b50505092915050565b600082601f83011215156107b857600080fd5b81356107cb6107c682610ad7565b610a56565b915080825260208301602083018583830111156107e757600080fd5b6107f2838284610b2e565b50505092915050565b60006108078235610b24565b905092915050565b6000806040838503121561082257600080fd5b600083013567ffffffffffffffff81111561083c57600080fd5b610848858286016107a5565b925050602083013567ffffffffffffffff81111561086557600080fd5b610871858286016106d9565b9150509250929050565b60006020828403121561088d57600080fd5b600061089b848285016107fb565b91505092915050565b600080604083850312156108b757600080fd5b60006108c5858286016107fb565b92505060206108d6858286016107fb565b9150509250929050565b6108e981610b0e565b82525050565b60006108fa82610b03565b80845261090e816020860160208601610b3d565b61091781610b70565b602085010191505092915050565b6000600e82527f496e76616c6964206f7074696f6e0000000000000000000000000000000000006020830152604082019050919050565b6000601482527f506f6c6c20646f6573206e6f74206578697374730000000000000000000000006020830152604082019050919050565b61099c81610b1a565b82525050565b600060408201905081810360008301526109bc81856108ef565b90506109cb60208301846108e0565b9392505050565b600060208201905081810360008301526109eb81610925565b9050919050565b60006020820190508181036000830152610a0b8161095c565b9050919050565b6000602082019050610a276000830184610993565b92915050565b6000604082019050610a426000830185610993565b610a4f6020830184610993565b9392505050565b6000604051905081810181811067ffffffffffffffff82111715610a7957600080fd5b8060405250919050565b600067ffffffffffffffff821115610a9a57600080fd5b602082029050602081019050919050565b600067ffffffffffffffff821115610ac257600080fd5b601f19601f8301169050602081019050919050565b600067ffffffffffffffff821115610aee57600080fd5b601f19601f8301169050602081019050919050565b600081519050919050565b60008115159050919050565b6000819050919050565b6000819050919050565b82818337600083830152505050565b60005b83811015610b5b578082015181840152602081019050610b40565b83811115610b6a576000848401525b50505050565b6000601f19601f830116905091905056fea265627a7a72305820f89348446107187fd40107f38cac275d323da96702a8c6d4560f32ed0a22edcd6c6578706572696d656e74616cf50037",
  "source": "// SPDX-License-Identifier: MIT\npragma experimental ABIEncoderV2;\npragma solidity >=0.4.22 <0.9.0;\n\ncontract Polling {\n    struct Poll {\n        string question;\n        string[] options;\n        mapping(uint => uint) votes;\n        bool exists;\n    }\n\n    mapping(uint => Poll) public polls;\n    uint public pollCount;\n    event Voted(uint pollId,  uint optionIndex);\n\n    function createPoll(string memory _question, string[] memory _options) public {\n        pollCount++;\n        Poll storage newPoll = polls[pollCount];\n        newPoll.question = _question;\n        newPoll.options = _options;\n        newPoll.exists = true;\n    }\n    modifier isPollValid(uint _pollId, uint _optionIndex) {\n        require(polls[_pollId].exists, \"Poll does not exists\");\n        require(polls[_pollId].options.length > _optionIndex, \"Invalid option\");\n        _;\n    }\n\n    function vote(uint _pollId, uint _optionIndex) public isPollValid(_pollId,_optionIndex) {\n        \n        polls[_pollId].votes[_optionIndex]++;\n        emit Voted(_pollId, _optionIndex);\n    }\n\n    function getVotes(uint _pollId, uint _optionIndex) public  isPollValid(_pollId,_optionIndex) view returns(uint voteCount) {\n        voteCount = polls[_pollId].votes[_optionIndex];\n        return voteCount;\n    }\n}\n",
  "sourcePath": "/home/avanrathod/blockchain/decetralised-polling/contracts/Polling.sol",
  "compiler": {
    "name": "solc",
    "version": "0.5.1+commit.c8a2cb62.Emscripten.clang"
  },
  "schemaVersion": "3.4.16",
  "updatedAt": "2024-10-04T07:01:25.088Z",
  "networkType": "ethereum",
  "devdoc": {
    "methods": {}
  },
  "userdoc": {
    "methods": {}
  }
}